:020000040800F2
:10000000C004002001010008B7130008E91000082F
:10001000B513000849010008F118000800000000AD
:10002000000000000000000000000000BB130008FA
:10003000B501000800000000B9130008BD13000856
:100040001B0100081B0100081B0100081B01000820
:100050001B0100081B0100081B0100081B01000810
:100060001B0100081B0100081B0100081B01000800
:100070001B0100081B0100081B0100081B010008F0
:100080001B0100081B0100081B0100081B010008E0
:100090001B0100081B0100081B0100081B010008D0
:1000A0001B0100081B0100081B0100081B010008C0
:1000B0001B0100081B0100081B0100081B010008B0
:1000C0001B0100081B0100081B0100081B010008A0
:1000D0001B0100088D1800081B0100081B01000807
:1000E0001B0100081B0100081B010008DFF80CD0F1
:1000F00000F018F80048004735190008C004002037
:100100000648804706480047FEE7FEE7FEE7FEE7B1
:10011000FEE7FEE7FEE7FEE7FEE7FEE73514000830
:10012000ED000008064C074D06E0E06840F00103D2
:1001300094E8070098471034AC42F6D3FFF7DAFF93
:100140009C190008BC190008FEE700000278184955
:10015000192A03D10A780AB901220A704278652A5D
:1001600002D10A78012A04D00A78022A03D000209A
:10017000704702220A70C278837802EB03220A8158
:100180004279037902EB03224A81C279837902EB37
:1001900003224A80427A037A02EB03228A80C27ADF
:1001A000807A02EB0020C880002008700120704790
:1001B000120000207047000010B590F821100024B4
:1001C000022903D00421816301243DE001680A680B
:1001D00022F00E020A6001680A6822F001020A6039
:1001E0001A4A0168914201D1012121E0174A1432D3
:1001F000914201D110211BE0144A2832914201D1D1
:10020000891515E0114A3C32914201D189140FE061
:100210000E4A5032914202D14FF4803108E00B4A2D
:100220006432914202D14FF4801101E04FF08071AD
:10023000064A083A5160012180F82110002180F817
:100240002010416B01B18847204610BD08000240D4
:100250002DE9F84FDFF8B891002409F1040A0AF1FA
:10026000040B23460F270BF1040EC9E00125A5401E
:100270002A40AA427DD1674ED1F804C0ACEB0608F3
:10028000B44532D014DCBCF1030F3AD009DCBCF128
:10029000000F2AD0BCF1010F1CD0BCF1020F31D1EC
:1002A0001DE0BCF1110F17D0BCF1120F2AD119E0DB
:1002B000B8F5881F19D006DCB8F5803F15D0B8F521
:1002C000801F1FD111E0B8F5001F0ED0B8F5041F34
:1002D00018D10AE0CB6815E0CB681B1D12E0CB6893
:1002E00008330FE0CB680C330CE08B682BB1012B8B
:1002F0004FF0080303D0456104E0042302E00561E8
:1003000000E00023FF2A01D8064601E000F10406C0
:100310004FEA840501D9A5F12005D6F8008007FA37
:1003200005FC28EA0C0803FA05F548EA0508C6F8B2
:1003300000804D68ED0062D5374DAE6946F001068C
:10034000AE61AD6924F0030605F001050095334D5B
:1003500006EB050CDCF80850A607360F07FA06F87E
:1003600025EA0805DFF8B880404503D14FF00008C2
:1003700017E044E0DFF8AC80404502D14FF00108BF
:100380000FE0DFF8A480404502D14FF0020808E0FA
:10039000DFF89880404502D14FF0030801E04FF0AC
:1003A000040808FA06F848EA0508CCF808804D6801
:1003B000D9F80060ED034D4601D5164300E09643A1
:1003C0002E604D68DAF80060AD03554601D516433E
:1003D00000E096432E604D68DBF80060ED025D465C
:1003E00001D5164300E096432E604D68DEF80060AC
:1003F000AD02754601D5164300E096432E60641C9D
:100400000D682A46E5407FF431AFBDE8F88F000063
:1004100000040140000011100010024000000140E3
:1004200000080140000C0140001001400014014090
:100430000AB1016170470904FBE7000001488068C8
:1004400070470000280000200248816802781144AB
:100450008160704728000020074810B5016841F00E
:1004600010010160032000F097F8002000F006F86A
:1004700000F024F8002010BD0020024070B50D4DA2
:1004800004464FF47A712878B1FBF0F00A49096804
:10049000B1FBF0F000F021FB48B9102C07D200228C
:1004A0002146501E00F058F800206C6070BD0120FD
:1004B00070BD000028000020240000201D4808B561
:1004C000816941F001018161806900F001000090C3
:1004D000032000F061F8002211466FF00B0000F0DD
:1004E0003BF8002211466FF00A0000F035F80022B8
:1004F00011466FF0090000F02FF800221146501F3E
:1005000000F02AF800221146101F00F025F8002202
:100510001146901E00F020F800221146501E00F0F7
:100520001BF80548416821F0E06141F0007141602D
:1005300008BD00000010024000000140002809DB57
:1005400000F01F02012191404009800000F1E020ED
:10055000C0F8001170470000F0B40E4B1B680C4649
:10056000C3F30223C3F10705042D00D90425191D87
:10057000072901D2002300E0DB1E012606FA05F15F
:10058000491E214099409E40761E16403143F0BCE2
:1005900001F0B0B90CED00E0064900F00702086870
:1005A0004FF6FF03184040EA0220034A1043086058
:1005B000704700000CED00E00000FA052DE9F0475F
:1005C0000F46050061D0434E306800F00700B84286
:1005D00009D2306820F0070038433060306800F0FE
:1005E0000700B84251D128683B4C810712D540071B
:1005F00003D5606840F4E06060602878000703D5A8
:10060000606840F4605060606068A96820F0F000A5
:10061000084360602878C00728D06868012810D097
:100620002168022810D0890700292EDA616821F09C
:10063000030101436160FFF701FF804641F2883901
:100640000DE021688903EFE78901EDE7FFF7F6FE8A
:10065000A0EB0801494502D90320BDE8F087606896
:10066000696800F00C00B0EB810FEFD1306800F04A
:100670000700B8420BD9306820F0070038433060DB
:10068000306800F00700B84201D00120E5E7287883
:10069000400705D56068E96820F4E06008436060C1
:1006A0002878000706D56068296920F4605040EA80
:1006B000C100606000F03EF86168084AC1F30311B0
:1006C000515CC8400649086006480068FFF7D6FE3E
:1006D0000020C2E7002002400010024083190008F9
:1006E000240000202C000020014800687047000012
:1006F000240000200448054900684968044AC1F301
:100700000221515CC84070472400002000100240C4
:10071000931900080448054900684968044AC1F370
:10072000C221515CC84070472400002000100240E4
:100730009319000812A185B00FC98DE80F0014A00D
:10074000144A006804905168134801F00C03042B0C
:1007500010D0082B0ED1C1F38343C9031DF8030049
:100760000AD5516804AAC1F34041515C0A4A50437A
:10077000B0FBF1F005B0704708494843FAE70000C4
:1007800002030405060708090A0B0C0D0E0F1010D2
:10079000010200000010024000127A0000093D0032
:1007A0002DE9F84F040070D02078C04DC00749D023
:1007B0006868C0F38100012807D06868C0F3810031
:1007C000022809D16868C00306D52868800339D596
:1007D00060680028E7D035E06068B0F5803F0BD056
:1007E00010B1B0F5A02F11D0286820F48030286017
:1007F000286820F4802002E0286840F480302860D7
:10080000606890B1FFF71AFE06460AE0286840F4D7
:1008100080202860F0E700BFFFF710FE801B6428EF
:1008200073D828688003F7D50CE0FFF707FE06466B
:1008300005E000BFFFF702FE801B6428F0D828689F
:100840008003F7D420789A4E80074FF001094FF0CB
:10085000000839D5686810F00C0F07D06868C0F33D
:100860008100022809D16868C00306D4286880077F
:1008700014D52069012808D110E02069B0B1C6F86C
:100880000090FFF7DBFD074605E00AE1FFF7D6FD24
:10089000C01B0228C4D828688007F7D5286861697A
:1008A00020F0F80040EAC10028600DE0C6F80080A2
:1008B000FFF7C4FD074604E0FFF7C0FDC01B022898
:1008C00023D828688007F7D4207800072CD57948EA
:1008D000A169D9B1C0F80090FFF7B0FD074604E068
:1008E000FFF7ACFDC01B02280FD8686A8007F7D558
:1008F00071484FF4FA510068B0FBF1F0009000BF6E
:100900000098411E0091FAD20EE080E0C0F800800D
:10091000FFF794FD074604E0FFF790FDC01B022897
:1009200075D8686A8007F7D42078400760D5E869F1
:100930000027C00008D4E86940F08050E861E86909
:10094000012700F0805000905C480168C90513D46D
:100950000168834641F480710160FFF76FFD8246B4
:1009600006E000BFFFF76AFDA0EB0A0064284ED83E
:10097000DBF80000C005F5D5E06801280AD008B111
:10098000052813D0286A20F001002862286A20F088
:10099000040002E0286A40F001002862E06841F2A9
:1009A000883B98B1FFF74AFD82460BE0286A40F089
:1009B00004002862EEE700BFFFF740FDA0EB0A014C
:1009C00059455AD8286A8007F6D50CE0FFF736FD5E
:1009D000824605E0FFF732FDA0EB0A0159454CD8ED
:1009E000286A8007F6D41FB1E86920F08050E861DA
:1009F000E06988B36968C1F38101022944D0022803
:100A0000C6F8608004D0FFF719FD044638E034E0F2
:100A1000FFF714FD074604E0FFF710FDC01B022896
:100A20002BD828688001F7D4206AB0F5803F05D123
:100A30006868A16820F4003008436860D4E90801C0
:100A40000843696821F4741108436860C6F860902F
:100A5000FFF7F4FC044606E025E000BFFFF7EEFCDC
:100A6000001B022809D828688001F7D51BE000BFC9
:100A7000FFF7E4FC001B022802D90320BDE8F88F31
:100A800028688001F4D40EE00128F7D06868226A53
:100A900000F48031914204D1616A00F47010884200
:100AA00001D00120EAE70020E8E700000010024042
:100AB00000004242800442422400002000700040B6
:100AC0004FF0E0210428086903D020F004000861F9
:100AD000704740F00400FAE7704710B5401EB0F1CF
:100AE000807F01D3012010BD4FF0E02460610F2111
:100AF000601700F0FFFE0020A061072020610020A9
:100B000010BD10B5FFF7E8FF10BD70B590F83C20A0
:100B1000012A19D0012400F83C4F0222427050F8FB
:100B20003C3C5A689D6822F070060A684968324366
:100B300025F0800529435A6050F83C2C91604470A0
:100B400000210170084670BD022070BD1FB500680D
:100B5000B0F1804F08D1082000900220019003904E
:100B600069460248FFF774FB1FBD00000008014002
:100B700070B5044690F83C000D4601280DD00126C2
:100B800084F83C60022084F83D0042B1042A18D069
:100B9000082A2AD00C2A4DD139E0022070BD2068E5
:100BA00000F0B0FC2068816941F008018161206893
:100BB000816921F004018161206881692A691143FA
:100BC00011E0206800F0C6FC2068816941F40061F2
:100BD00081612068816921F4806181612068816977
:100BE0002A6941EA0221816124E0206800F0DEFCEC
:100BF0002068C16941F00801C1612068C16921F024
:100C00000401C1612068C1692A69114311E02068AB
:100C100000F0F8FC2068C16941F40061C1612068FE
:100C2000C16921F48061C1612068C1692A6941EA12
:100C30000221C16184F83D60002084F83C0070BD51
:100C400010B5040003D094F83D0010B107E0012076
:100C500010BD002084F83C00204600F00DF8022072
:100C600084F83D00211D206800F008FC012084F874
:100C70003D00002010BD000008B50068B0F1804FB5
:100C800008D10548C16941F00101C161C06900F0A6
:100C90000100009008BD00000010024010B504469D
:100CA0000068012200F020FC09492068884203D135
:100CB000416C41F4004141642068816801F0070102
:100CC000062903D0016841F001010160002010BD38
:100CD000002C014010B504460068002200F004FC1E
:100CE000104B41F2111120688A10984209D1036A11
:100CF0000B4206D1036A134203D1436C23F4004331
:100D000043642068036A0B4206D1016A114203D191
:100D1000016821F001010160012084F83D000020FC
:100D200010BD0000002C01407047000070B5026843
:100D300004461068D168536910F00F0F51D003F0CA
:100D4000010501F4907635435DD0C20705D0CA0590
:100D500003D5E26B42F00102E263420705D5DA07F0
:100D600003D0E26B42F00202E263820705D5DA07A4
:100D700003D0E26B42F00402E263020705D5DA0712
:100D800003D0E26B42F00802E263E26B002A34D047
:100D9000800604D5880602D5204600F06BFC20684A
:100DA0004069E16BC0F3801001F008010143204667
:100DB00024D000F051FC2068416949061AD54169E8
:100DC00021F040014161606BA0B11B494163606B40
:100DD000FFF7F2F9002810D0606B416BBDE870405E
:100DE000084783060FD58B060DD52046BDE8704019
:100DF00000F040BC2046FFF797FF70BDFFF794FF5F
:100E00000020E06370BD030606D50B0604D520461E
:100E1000BDE8704000F0D6BC4006F3D54806F1D5D9
:100E2000D168204621F04001D160202184F839109A
:100E300000F013F970BD00004916000870B50400F9
:100E400004D094F83900002510B106E0012070BDEF
:100E500084F83850204600F023F8242084F8390024
:100E60002068C16821F40051C160204600F04EFCAA
:100E70002068016921F4904101612068416921F0F5
:100E80002A0141612068C16841F40051C160E563F5
:100E9000202084F8390084F83A00002070BD00005A
:100EA00010B50068154986B0884225D1144881697B
:100EB00041F4804181618069124C00F480400490CB
:100EC0004FF40070009002200190032003906946C7
:100ED0002046FFF7BDF900212015CDE90001029160
:100EE00069462046FFF7B4F9002202212520FFF7CA
:100EF00033FB2520FFF722FB06B010BD0038014070
:100F0000001002400008014090F83A30202B22D116
:100F1000F9B1F2B190F83830012B1CD08162828592
:100F2000C2850021C163222280F83A2080F838105F
:100F30000168CA6842F48072CA6001684A6942F076
:100F400001024A610068C16841F02001C1600020CF
:100F500070470120704702207047000010B50D490E
:100F60000068096888420ED10B48FFF7EFF80128A6
:100F700009D10A4C6189208900F084F8E288A188AF
:100F8000608800F089FCBDE810400C22024901484D
:100F9000FFF7BABF74000020B40000201200002048
:100FA0002DE9F843044690F839001F4616460D46D1
:100FB000202850D1A5B19EB194F8380001284AD01C
:100FC000012084F838004FF00008C4F83C8021204C
:100FD00084F83900FFF732FAA6848146E68426E0D9
:100FE0000120BDE8F883E08C401EE084A0684B46F9
:100FF000B0F5805F4FF000024FF08001204600976F
:1010000003D000F010FCE8B90DE000F00CFCC8B90A
:1010100028882168C0F308004860206908B16D1C69
:1010200005E0AD1C03E0216815F8010B4860E08C79
:101030000028D8D14B46002240212046009700F0DE
:10104000F2FB08B10320CCE7202084F8390084F8B3
:1010500038800020C5E70220C3E7704710B503239E
:10106000064A0221742000F0C9F803232521BDE8B7
:101070001040034A742000F0C1B800008019000835
:101080001E0000202DE9F041164BC0F305144FEA75
:10109000D03C00F00F070022D81CC1F30125CEB2CE
:1010A000BCEBD13F1C7007D145EA071159709E7007
:1010B00002704270827005E0390159709A700270B6
:1010C000457086700323074A0221742000F096F8C9
:1010D000BDE8F041034A0323D21C2521742000F00F
:1010E0008DB800001E000020FEE70020401C80B2EA
:1010F0006428FBD37047000070B5204E05460022DF
:1011000020213046FFF794F90024280601D501225A
:1011100000E0002240213046FFF78AF9FFF7E5FFA3
:10112000012220213046FFF783F9FFF7DEFF00227E
:1011300020213046FFF77CF9FFF7D7FF6806641CD3
:10114000050EE4B2082CE0D3FFF7CFFF01224021C7
:101150003046FFF76DF9FFF7C8FF01222021304626
:10116000FFF766F9FFF7C1FF002220213046FFF7A5
:101170005FF9BDE87040FFF7B8BF0000000C014008
:1011800010B50E4C012240212046FFF751F90122F3
:1011900020212046FFF74CF9FFF7A7FFFFF7A5FF37
:1011A000002240212046FFF743F9FFF79EFF20462B
:1011B0000022BDE810402021FFF73AB9000C0140A1
:1011C00010B50D4C002220212046FFF731F90022F6
:1011D00040212046FFF72CF9FFF787FF012220214D
:1011E0002046FFF725F9012240212046FFF720F98C
:1011F000BDE81040FFF779BF000C01402DE9F04138
:101200001D4616460F460446FFF7BAFF6006000E5D
:10121000FFF772FF3846FFF76FFF002404E0305DF0
:10122000FFF76AFF641CA4B2AC42F8D3BDE8F041FA
:10123000FFF7C6BF30B5264885B0816941F010017F
:101240008161816901F010010491816941F02001FF
:101250008161816901F020010491816941F00401FB
:101260008161816901F004010491816941F0080103
:1012700081618069174D00F008000490012260210F
:101280002846FFF7D5F84FF460400324CDE9000469
:1012900069461148FEF7DCFF49F6F710CDE9000476
:1012A00069460E48FEF7D4FF4FF69F70CDE9000463
:1012B00069462846FEF7CCFF60200090012001908F
:1012C000694603942846FEF7C3FF05B030BD000011
:1012D00000100240000C01400010014000080140D5
:1012E00010B51B488AB04FF08041016019490024B5
:1012F000C0E901140921C0E9031480218161FFF7CD
:101300009FFC18B13F2114A000F0F3FA079407A93D
:101310000F480894FFF7F9FB18B146210EA000F022
:10132000E8FA602000900520CDE901040420049033
:101330000C2269460648FFF71BFC18B14F2106A096
:1013400000F0D7FA0248FFF701FC0AB010BD000018
:10135000340000203F1901002E2E2F5372632F748A
:10136000696D2E63000000000D4810B50B49016047
:101370004FF4E1314160002181600C22C160C0E97D
:1013800004128161C161FFF759FD002805D0BDE855
:101390001040422103A000F0ACBA10BD003801405B
:1013A000740000202E2E2F5372632F757361727498
:1013B0002E630000FEE770477047704710B5FFF7D7
:1013C00043F8BDE81040FFF79CBB30B58FB001215A
:1013D0000804CDE900100024029402250491CDE90F
:1013E00007504FF4E01009906846FFF7D9F900B1B3
:1013F000FEE70F20CDE90A054FF48060CDE90C40EF
:1014000002210AA80E94FFF7D9F800B1FEE7FFF712
:101410006BF94FF47A71B0FBF1F0FFF75EFB04203B
:10142000FFF74EFB00221146501EFFF795F80FB054
:1014300030BD00000D48016841F0010101604168C4
:101440000B4A1140416001680A4A1140016001687D
:1014500021F480210160416821F4FE0141604FF4D4
:101460001F0181600449C0030860704700100240FA
:101470000000FFF8FFFFF6FE08ED00E0F0B502689F
:10148000164B174C174D4FF08047984205D0B84285
:1014900003D0A04201D0A84203D122F070064A68CE
:1014A0003243984205D0B84203D0A04201D0A842AE
:1014B00003D122F44074CA6822434C6922F08002AE
:1014C000224302608A68C2620A688262984201D13D
:1014D0000969016301214161F0BD0000002C014058
:1014E000000400400008004010B501F01F03012176
:1014F000046A99408C430462016A9A401143016274
:1015000010BD000030B5026A22F001020262026AD8
:101510004368846924F073050C682C4322F00205AB
:101520008A682A430A4DA8420BD122F00805CA68EE
:1015300023F440732A434D6922F004021D438B6952
:101540002B434360846149684163026230BD0000FF
:10155000002C014030B5026A22F010020262026AD9
:10156000436884690D6824F4E64444EA05248D68E0
:1015700022F0200242EA05120B4DA8420ED1CD689E
:1015800022F0800242EA05124D6923F4406343EAE7
:1015900085038D6922F0400243EA8503436084613C
:1015A00049688163026230BD002C014030B5026A97
:1015B00022F480720262036A4268C46923F40073F1
:1015C00024F073050C682C438D6843EA05230C4D09
:1015D000A8420ED1CD6823F4006343EA05234D6988
:1015E00022F4405242EA05128D6923F4806342EAF4
:1015F00005124260C4614968C163036230BD0000E6
:10160000002C014030B5026A22F480520262046A62
:101610004268C3690D6823F4E64343EA05238D68F5
:1016200024F4005444EA0534064DA84204D14D691F
:1016300022F4804242EA85124260C3614968016433
:10164000046230BD002C014010B5406A0021C18504
:10165000C184FFF769FB10BD0168CA6822F490726B
:10166000CA6001684A6922F001024A61202180F8BB
:101670003A10704710B590F83A10222901D0022094
:1016800010BD8168B1F5805F11D001690029016842
:101690001FD0496801F07F03816A4A1C82620B7087
:1016A000C18D491E0904090CC18518D02BE00269BF
:1016B000816A002A0268526805D0D2B20A80816A23
:1016C000491C8162ECE7C2F308020A80816A891C26
:1016D000F7E74A68816A4B1C83620A70E0E7016899
:1016E000CA6822F02002CA600168CA6822F48072C7
:1016F000CA6001684A6922F001024A61202180F82B
:101700003A10FFF72BFC002010BD00002DE9F0413E
:10171000044600680169E26821F440511143016107
:101720002169A0680843616908432168CA6841F2D9
:101730000C639A430243CA6020684169A26921F49C
:101740004071114341611E49206864253226884258
:1017500002D1FEF7DFFF01E0FEF7CCFF00EBC00196
:1017600001EB001160686FF018078000B1FBF0F228
:10177000B2FBF5F2B1FBF0F37A4303EB8202B1FB6B
:10178000F0F306EB0212B2FBF5F2B3FBF5F302F055
:10179000F00202EB0312B1FBF0F3B1FBF0F0B0FB8F
:1017A000F5F0784303EB800006EB0010B0FBF5F09A
:1017B000216800F00F0010448860BDE8F08100004F
:1017C0000038014090F83910212901D002207047DB
:1017D0008168B1F5805F016A0BD04A1C0262026821
:1017E00009785160C18C491E0904090CC1840ED0CE
:1017F00017E009880268C1F30801516001690029F6
:10180000016A02D0491C0162ECE7891CFBE7016810
:10181000CA6822F08002CA600068C16841F04001D5
:10182000C160002070472DE9F041984617460E46EA
:101830000446069D1DE0681C1BD02DB1FEF7FEFD81
:10184000A0EB0800A84214D92068C16821F4D07127
:10185000C1602068416921F001014161202084F8C4
:10186000390084F83A00002084F838000320BDE8ED
:10187000F0812068006836EA000004D00020B842F9
:10188000D9D00020F3E70120F9E700000148FFF775
:101890004DBA00007400002070B50E46044688B0B2
:1018A00015460C211148FFF715FA104B4FF08040F8
:1018B000641EC3E900040024761EC3E902461C61CD
:1018C00018469C61FFF7BCF960206D1ECDE900054C
:1018D0000420049002940C2269460448FFF748F95A
:1018E0000C210248FFF7DAF908B070BD340000207F
:1018F000FEE7FEE70907090E002804DB00F1E020FF
:1019000080F80014704700F00F0000F1E02080F82C
:10191000141D704702E008C8121F08C1002AFAD13E
:1019200070477047002001E001C1121F002AFBD15F
:1019300070470000FEF790FDFFF747FDFFF77AFCC8
:10194000FFF7CEFCFFF710FD40F6FF7312220849A7
:101950000848FFF725FBFFF781FB0C2206490548E5
:10196000FFF7D2FA0C210548FFF798F9FEE70000CF
:101970000000002074000020B4000020340000208B
:101980000000000000000000000000010203040647
:10199000070809000000000102030400BC19000848
:1019A000000000203400000014190008F01900089D
:1019B000340000208C040000241900082A2A2A2A56
:1019C0002A426567696E2A2A2A2A2A0D0A0000001F
:1019D0000000000000000000000000000000000007
:1019E0000024F400010000001000000000000000CE
:04000005080000ED02
:00000001FF
